{
  "contractName": "Conference",
  "abi": [
    {
      "inputs": [],
      "payable": false,
      "stateMutability": "nonpayable",
      "type": "constructor"
    },
    {
      "anonymous": false,
      "inputs": [
        {
          "indexed": false,
          "internalType": "address",
          "name": "_from",
          "type": "address"
        },
        {
          "indexed": false,
          "internalType": "uint256",
          "name": "_amount",
          "type": "uint256"
        }
      ],
      "name": "Deposit",
      "type": "event"
    },
    {
      "anonymous": false,
      "inputs": [
        {
          "indexed": false,
          "internalType": "address",
          "name": "_to",
          "type": "address"
        },
        {
          "indexed": false,
          "internalType": "uint256",
          "name": "_amount",
          "type": "uint256"
        }
      ],
      "name": "Refund",
      "type": "event"
    },
    {
      "constant": true,
      "inputs": [],
      "name": "numRegistrants",
      "outputs": [
        {
          "internalType": "uint256",
          "name": "",
          "type": "uint256"
        }
      ],
      "payable": false,
      "stateMutability": "view",
      "type": "function"
    },
    {
      "constant": true,
      "inputs": [],
      "name": "organizer",
      "outputs": [
        {
          "internalType": "address payable",
          "name": "",
          "type": "address"
        }
      ],
      "payable": false,
      "stateMutability": "view",
      "type": "function"
    },
    {
      "constant": true,
      "inputs": [],
      "name": "quota",
      "outputs": [
        {
          "internalType": "uint256",
          "name": "",
          "type": "uint256"
        }
      ],
      "payable": false,
      "stateMutability": "view",
      "type": "function"
    },
    {
      "constant": true,
      "inputs": [
        {
          "internalType": "address",
          "name": "",
          "type": "address"
        }
      ],
      "name": "registrantsPaid",
      "outputs": [
        {
          "internalType": "uint256",
          "name": "",
          "type": "uint256"
        }
      ],
      "payable": false,
      "stateMutability": "view",
      "type": "function"
    },
    {
      "constant": false,
      "inputs": [
        {
          "internalType": "uint256",
          "name": "newquota",
          "type": "uint256"
        }
      ],
      "name": "changeQuota",
      "outputs": [],
      "payable": false,
      "stateMutability": "nonpayable",
      "type": "function"
    },
    {
      "constant": false,
      "inputs": [
        {
          "internalType": "address payable",
          "name": "recipient",
          "type": "address"
        },
        {
          "internalType": "uint256",
          "name": "amount",
          "type": "uint256"
        }
      ],
      "name": "refundTicket",
      "outputs": [],
      "payable": false,
      "stateMutability": "nonpayable",
      "type": "function"
    }
  ],
  "bytecode": "0x608060405234801561001057600080fd5b50336000806101000a81548173ffffffffffffffffffffffffffffffffffffffff021916908373ffffffffffffffffffffffffffffffffffffffff16021790555060646003819055506000600281905550610478806100706000396000f3fe608060405234801561001057600080fd5b50600436106100625760003560e01c806313381fbf1461006757806361203265146100bf578063705099b914610109578063a977c71e14610157578063cebe09c914610185578063ec3a6f73146101a3575b600080fd5b6100a96004803603602081101561007d57600080fd5b81019080803573ffffffffffffffffffffffffffffffffffffffff1690602001909291905050506101c1565b6040518082815260200191505060405180910390f35b6100c76101d9565b604051808273ffffffffffffffffffffffffffffffffffffffff1673ffffffffffffffffffffffffffffffffffffffff16815260200191505060405180910390f35b6101556004803603604081101561011f57600080fd5b81019080803573ffffffffffffffffffffffffffffffffffffffff169060200190929190803590602001909291905050506101fe565b005b6101836004803603602081101561016d57600080fd5b81019080803590602001909291905050506103d3565b005b61018d610437565b6040518082815260200191505060405180910390f35b6101ab61043d565b6040518082815260200191505060405180910390f35b60016020528060005260406000206000915090505481565b6000809054906101000a900473ffffffffffffffffffffffffffffffffffffffff1681565b6000809054906101000a900473ffffffffffffffffffffffffffffffffffffffff1673ffffffffffffffffffffffffffffffffffffffff163373ffffffffffffffffffffffffffffffffffffffff1614610257576103cf565b80600160008473ffffffffffffffffffffffffffffffffffffffff1673ffffffffffffffffffffffffffffffffffffffff1681526020019081526020016000205414156103ce576000309050818173ffffffffffffffffffffffffffffffffffffffff1631106103cc578273ffffffffffffffffffffffffffffffffffffffff166108fc839081150290604051600060405180830381858888f19350505050158015610307573d6000803e3d6000fd5b507fbb28353e4598c3b9199101a66e0989549b659a59a54d2c27fbb183f1932c8e6d8383604051808373ffffffffffffffffffffffffffffffffffffffff1673ffffffffffffffffffffffffffffffffffffffff1681526020018281526020019250505060405180910390a16000600160008573ffffffffffffffffffffffffffffffffffffffff1673ffffffffffffffffffffffffffffffffffffffff16815260200190815260200160002081905550600260008154809291906001900391905055505b505b5b5050565b6000809054906101000a900473ffffffffffffffffffffffffffffffffffffffff1673ffffffffffffffffffffffffffffffffffffffff163373ffffffffffffffffffffffffffffffffffffffff161461042c57610434565b806003819055505b50565b60035481565b6002548156fea265627a7a7231582074736b543163147986d4be250ba548c2cf728276a35ccf73d599e481f700fa8164736f6c63430005100032",
  "source": "pragma solidity ^0.5.16;\ncontract Conference {  // can be killed, so the owner gets sent the money in the end\n\n\taddress payable public organizer;\n\tmapping (address => uint) public registrantsPaid;\n\tuint public numRegistrants;\n\tuint public quota;\n\n\tevent Deposit(address _from, uint _amount); // so you can log the event\n\tevent Refund(address _to, uint _amount); // so you can log the event\n\n\tconstructor() public {\n\t\torganizer = msg.sender;\n\t\tquota = 100;\n\t\tnumRegistrants = 0;\n\t}\n\n\tfunction buyTicket() internal {\n\t\tif (numRegistrants >= quota) {\n\t\t\trevert(); // throw ensures funds will be returned\n\t\t}\n\t\tregistrantsPaid[msg.sender] = msg.value;\n\t\tnumRegistrants++;\n\t\temit Deposit(msg.sender, msg.value);\n\t}\n\n\tfunction changeQuota(uint newquota) public {\n\t\tif (msg.sender != organizer) { return; }\n\t\tquota = newquota;\n\t}\n\n\tfunction refundTicket(address payable recipient, uint amount) public {\n\t\tif (msg.sender != organizer) { return; }\n\t\tif (registrantsPaid[recipient] == amount) {\n\t\t\taddress myAddress = address(this);\n\t\t\tif (myAddress.balance >= amount) {\n\t\t\t\trecipient.transfer(amount);\n\t\t\t\temit Refund(recipient, amount);\n\t\t\t\tregistrantsPaid[recipient] = 0;\n\t\t\t\tnumRegistrants--;\n\t\t\t}\n\t\t}\n\t\treturn;\n\t}\n\n\tfunction destroy() private {\n\t\tif (msg.sender == organizer) { // without this funds could be locked in the contract forever!\n\t\t\tselfdestruct(organizer);\n\t\t}\n\t}\n}\n",
  "sourcePath": "/Users/jamisontsai/Desktop/GitHub/smart-contract/contracts/Conference.sol",
  "compiler": {
    "name": "solc",
    "version": "0.5.16+commit.9c3226ce.Emscripten.clang"
  },
  "schemaVersion": "3.3.4",
  "updatedAt": "2021-03-31T15:47:31.144Z",
  "networkType": "ethereum",
  "devdoc": {
    "methods": {}
  },
  "userdoc": {
    "methods": {}
  }
}